:020000040800F2
:10000000402E00205D020008D55D0008134F000857
:10001000D15D0008D10B0008419A000800000000E3
:100020000000000000000000000000009D0100082A
:10003000CB1A000800000000F90100086B8F0008CF
:1000400077020008770200087702000877020008AC
:100050007702000877020008CD1A0008770200082E
:1000600077020008D71A0008E11A00087702000892
:10007000451100087702000877020008770200089F
:10008000770200087702000877020008770200086C
:10009000D50B00087702000877020008EB1A000869
:1000A000770200087702000877020008770200084C
:1000B00099900008A99000087702000877020008CC
:1000C000770200087702000877020008770200082C
:1000D00077020008F597000877020008F1980008F9
:1000E000770200087702000877020008770200080C
:1000F00077020008770200087702000877020008FC
:1001000077020008770200087702000877020008EB
:1001100077020008770200087702000877020008DB
:1001200077020008770200085511000877020008DE
:1001300077020008770200087702000877020008BB
:10014000E50B000877020008770200087702000834
:10015000770200087702000877020008219A000859
:10016000770200087702000877020008770200088B
:1001700077020008770200087702000800000000FC
:100180007702000877020008DFF80CD000F05AFB75
:100190000048004779B40008402E00202C4B196815
:1001A0000868B0E8F04F80F30988BFF36F8F4FF015
:1001B000000080F3118870470000000008480068C4
:1001C000006880F308884FF0000080F3148862B65E
:1001D00061B6BFF34F8FBFF36F8F00DF00BF00BF6B
:1001E00008ED00E0DFF80C00016841F470010160E7
:1001F000704700BF88ED00E0EFF30980BFF36F8F19
:10020000134B1A681EF0100F08BF20ED108A20E96A
:10021000F04F106009B44FF0500080F31188BFF325
:100220004F8FBFF36F8F0BF04FFB4FF0000080F349
:10023000118809BC19680868B0E8F04F1EF0100F6B
:1002400008BFB0EC108A80F30988BFF36F8F704746
:10025000B4010020EFF30580704700000648804796
:1002600006480047FEE7FEE7FEE7FEE7FEE7FEE79B
:10027000FEE7FEE7FEE7FEE735900008890100088B
:100280002DE9F05F0546002092469B4688460646CB
:10029000814640241BE0284641464746224600F05E
:1002A000B2F953465A46C01A914110D31146184626
:1002B000224600F099F92D1A67EB01084F462246B5
:1002C0000120002100F090F917EB00094E41201E9B
:1002D000A4F10104DFDC484631462A464346BDE826
:1002E000F09F40EA01039B0703D009E008C9121FF1
:1002F00008C0042AFAD203E011F8013B00F8013BE0
:10030000521EF9D27047D2B201E000F8012B491E0B
:10031000FBD270470022F6E710B513460A460446A2
:100320001946FFF7F0FF204610BD2DE9FE4F80462D
:1003300081EA0300C00F0C46009021F0004123F039
:100340000045B8EB0200A94105D24046214690463F
:100350001C460B46024623F00040104347D0270DB1
:10036000C7F30A00C3F30A510290401A01904028D3
:100370006BDAC3F3130040F4801B0098924620B15F
:100380000023D2EB030A63EB0B0B01985946C0F133
:100390004002504600F028F906460D4650465946A0
:1003A000019A00F040F910EB08006141002487EA4F
:1003B000115284EAE7731A4340D0009A62B3019A5B
:1003C000012A4FEA075215DC001B61EB02014FF0D6
:1003D000004202EA0752CDE90042001C41F58011BB
:1003E00032462B4600F040F903B0BDE8F08F40469E
:1003F0002146F9E7001B61EB0201001C41F5801367
:1004000000185B412018A2F5001747EB030140EAF2
:10041000D570B6196D4111E06D084FEA360645EA10
:10042000C0754FEA0752001B61EB0201001C41F549
:10043000801149084FEA30000019514132462B46DD
:1004400003B0BDE8F04F00F000B900980122400071
:100450000023D0EB020263EBE073009821464FEAE1
:10046000E074B8EB000061EB0401E9E783F00043BE
:100470005BE781F0004158E72DE9FE4F81EA030474
:1004800004F0004421F0004100944FF0000B23F0F1
:10049000004350EA01045ED052EA03045BD0C3F388
:1004A0000A54C1F30A552C44A4F2F3340194A0FB7E
:1004B0000254C1F3130141F48011C3F3130343F455
:1004C000801301FB024400FB034E840A970A44EAAE
:1004D000815447EA8357A4FB076802958D0A05FB00
:1004E00007854FEA932C04FB0C542705029D4FEA25
:1004F000065847EA1637B5EB08056EEB070C870E72
:10050000920E47EA811742EA8312A7FB0201B6EB7B
:100510000B0164EB00042B0D43EA0C335E1844EB33
:100520001C50DA465146E7FB0201C5F313044FEABB
:100530000B3343EA14534FEA0432019C43EA0603A7
:10054000A4F10C040294009CCDE900B400F08CF8F6
:1005500003B0BDE8F08F00200146F9E70EB5C10FEA
:1005600080EAE0700844CA07002140F233438DE876
:100570000E000A460B4600F077F803B000BD70B5D8
:10058000C1F30A5201F000450024C1F3130140F207
:10059000FF3341F480119A4201DA002070BD40F22D
:1005A00033439A42A2F2334203DC524200F02BF86A
:1005B00000E090402C43F1D0404270BD30B50B4676
:1005C000014600202022012409E021FA02F59D4283
:1005D00005D303FA02F5491B04FA02F52844151E57
:1005E000A2F10102F1DC30BD202A04DB203A00FA3E
:1005F00002F1002070479140C2F1200320FA03F37A
:10060000194390407047202A04DB203A21FA02F077
:100610000021704721FA02F3D040C2F1200291403C
:10062000084319467047202A06DBCB17203A41FAC7
:1006300002F043EAE07306E041FA02F3D040C2F16F
:100640002002914008431946704710B5141E73F1FB
:10065000000408DA401C41F1000192185B411A4382
:1006600001D120F0010010BD2DE9F04D92469B46CE
:1006700011B1B1FA81F202E0B0FA80F22032904674
:10068000FFF7B2FF04460F4640EA0A0041EA0B01B9
:1006900053465A46084313D0114653EA010019D075
:1006A000C8F140025046FFF7AEFF05460E465046E1
:1006B00059464246FFF798FF084305D0012004E061
:1006C00020463946BDE8F08D0020054346EAE07635
:1006D0002C4337430A986305E40AA0EB0800002284
:1006E000FD0A44EA47540A3002D500200146E9E7F2
:1006F000010510196941DDE9084500196941BDE8A6
:10070000F04DA2E72DE9F04D81EA030404F0004B1F
:1007100021F0004514464FF0000A23F0004150EA52
:10072000050220D054EA01021DD0C5F30A57024643
:10073000C5F31303C1F31300C1F30A5640F4801547
:1007400043F48013A7EB0608101BD64608F2FD38C9
:1007500073EB050002D308F1010801E092185B4138
:10076000B8F1000F03DA00200146BDE8F08D00204B
:100770004FF48011064684460EE0171B73EB050705
:1007800005D3121B63EB050306434CEA010C490831
:100790004FEA300092185B4150EA0107EDD152EA6E
:1007A000030012D082EA040083EA0501084305D061
:1007B000101BAB4106D20122002306E000224FF0BD
:1007C000004302E06FF0010253101AEB06004CEBFD
:1007D000085110EB0A0041EB0B01BDE8F04DFFF7AB
:1007E00034BFC1F30A52C1F3130140F2FF3341F4A5
:1007F00080119A4202DA00200146704740F23343EA
:100800009A42A2F2334202DC5242FFF7FCBEFFF7EB
:10081000EBBE000030B5041E71F1000404DB4FF0A4
:100820000044404264EB0101141E73F1000405DB37
:100830001C464FF00043524263EB0403994208BF49
:10084000904230BD064C074D06E0E06840F00103E1
:1008500094E8070098471034AC42F6D3FFF798FCB1
:100860008CBA0008ACBA000870B58C1810F8015B9F
:1008700015F0070301D110F8013B2A1106D110F839
:10088000012B03E010F8016B01F8016B5B1EF9D13D
:100890002B0705D40023521E0DD401F8013BFAE7C3
:1008A00010F8013BCB1A921C03E013F8015B01F82E
:1008B000015B521EF9D5A142D8D3002070BD0000C3
:1008C000B7EE000A80ED000A9FED060A80ED010AEE
:1008D0009FED040A80ED020A9FED020A80ED030AF3
:1008E00070470000000000002DE9F0412DED028B63
:1008F0000646B0EE408A0C4615461F4695ED023A74
:10090000F0EE432A95ED013AB0EE432A95ED003A18
:10091000F0EE431A94ED023AB0EE431A94ED013A28
:10092000F0EE430A94ED003AB0EE430A304605F08B
:10093000D1F8BDEC028BBDE8F081000010B50122BA
:100940001021024802F055FC10BD000000000240DA
:1009500010B500221021024802F04BFC10BD00002F
:10096000000002407047000010B501221146024805
:1009700002F03FFC10BD00000004024010B5002250
:100980000121024802F035FC10BD000000040240C5
:10099000704710B50446204602F096FA10BD10B517
:1009A000044620460AF03AFA10BD10B50024FFF7BD
:1009B000D9FFFFF7EDFF09F053FF10B144F08004B9
:1009C00002E009F0B3FE04430AF04EF910B144F01E
:1009D000400402E00AF0CEF80443204610BD0000B7
:1009E0002DE9FC4105460E46174600200090019077
:1009F000FFF7AEFF922000F0D1F8062269461220E0
:100A000000F0ACF8FFF79AFF9DF80100000200B279
:100A10009DF8001040EA010400EE104AB8EEC00A4A
:100A20004C48D0ED000A20EE200A86ED000A9DF821
:100A30000300000200B29DF8021040EA010400EE3B
:100A4000104AB8EEC00A4348D0ED000A20EE200A52
:100A500086ED010A9DF80500000200B29DF8041021
:100A600040EA010400EE104AB8EEC00A3948D0ED61
:100A7000000A20EE200A86ED020AFFF77FFF082217
:100A80006946002000F06AF8FFF76EFF9DF800004D
:100A90000F2838D19DF80300000200B29DF8021023
:100AA00040EA010400EE104AB8EEC00A2A48D0ED30
:100AB000000A20EE200A85ED000A9DF805000002DC
:100AC00000B29DF8041040EA010400EE104AB8EEAE
:100AD000C00A2148D0ED000A20EE200A85ED010A67
:100AE0009DF80700000200B29DF8061040EA0104DC
:100AF00000EE104AB8EEC00A1748D0ED000A20EE0A
:100B0000200A85ED020AFFF723FFA22000F046F835
:100B100002226946222000F021F8FFF70FFF9DF81E
:100B20000000C0009DF8011040EA6114B4F5806F28
:100B300002DBA4F5006004B200EE104AF8EEC00A31
:100B4000B4EE001AB3EE070A00EE810A87ED000A40
:100B5000BDE8FC81880100208C01002070B50646AC
:100B60000C46154646F0800000F018F806E05520C7
:100B700000F014F82070641C681EC5B2002DF6D178
:100B800070BD70B504460D4644F0800000F006F8D4
:100B9000552000F003F8287070BD000001B582B048
:100BA0004FF47A70012301AA02A90090024803F0D1
:100BB00017FB9DF804000EBD1C03002070B5054610
:100BC0000C462846FFF7EAFF2046FFF7E7FF70BD17
:100BD00000BFFEE710B5024801F077FB10BD000032
:100BE0007802002010B5024801F06FFB10BD000034
:100BF000A002002038B5044640F2FF100C490860FE
:100C000000208860C8600820086100200949087039
:100C10004870200A8870CC70002008714871887173
:100C2000C8716B460A460249034801F052F938BDC3
:100C3000800700209C00002078020020F8B50446C0
:100C40000D4616461F464FF400700D4908600020FF
:100C50008860C86008200861200A0A4908704C7042
:100C6000280A8870CD70300A08714E710020887192
:100C7000C8716B460A460249034801F02AF9F8BDDB
:100C8000800700209C00002078020020F8B507466D
:100C90000C4615461E464FF400700D4908600020B2
:100CA0008860C86008200861380A0A4908704F70D7
:100CB000200A8870CC70280A08714D71300A88713A
:100CC000CE716B460A460249034801F002F9F8BDAD
:100CD00098070020A4000020A0020020F8B50446D8
:100CE0000D4616461F4640F2FF100D4908600020D1
:100CF0008860C86008200861200A0A4908704C70A2
:100D0000280A8870CD700020087148718871C871F8
:100D10006B460A460249044801F0DBF8F8BD0000C2
:100D2000800700209C000020A002002038B5054666
:100D30000C46FF208DF800008DF801508DF8024020
:100D4000AA208DF803004FF6FF730422694602487B
:100D500004F074F838BD000074050020B0EE080AF5
:100D60001E4880ED000AB0EE080A80ED0B0AB0EED6
:100D7000080A80ED160AB0EE080A80ED210A9FED00
:100D8000180A80ED010A9FED160A80ED0C0A9FED0E
:100D9000140A80ED170A9FED120A80ED220A9FEDDA
:100DA000100A80ED020A9FED0E0A80ED0D0A9FEDFC
:100DB0000C0A80ED180A9FED0A0A80ED230A9FEDC8
:100DC000090A094880ED000A9FED050A80ED010A35
:100DD000B6EE000A80ED020A70470000900A00207B
:100DE00000000000CDCCCC3D6C0B0020F0B589B0EC
:100DF00005460E46174668423044384400EB8000F2
:100E0000400000EE100AB8EEC00A334880ED000A38
:100E1000A819384400EB8000400000EE100AB8EE3C
:100E2000C00A2D4880ED010A6842801B384400EB5F
:100E30008000400000EE100AB8EEC00A264880ED9F
:100E4000020AA81B384400EB8000400000EE100AA4
:100E5000B8EEC00A204880ED030A002438E01E499D
:100E600001EB840191ED000ABDEEC00A10EE100AFC
:100E700042F2107104F0E8FA04EB440000EBC40005
:100E8000164A02EB800000F1080124226846FFF7B1
:100E900028FA04EB440202EBC402104B03EB820C71
:100EA00004EB84020E4B03EB4202B2F902100A4A31
:100EB00002EB840292ED000ABDEEC00A10EE100AA9
:100EC000DCE9002304F088FF064941F82400641C93
:100ED000042CC4DB09B0F0BD400B0020900A0020B8
:100EE000EC070020500B002010B58AB064202422AB
:100EF000084909906846FFF7F4F9064808380CC815
:100F0000054801680548006800F00AF84442204698
:100F10000AB010BD740B00202C010020000100203D
:100F20000FB430B50546109C6A1A00EE102AB8EED0
:100F3000C00A8DED0A0A9DED0B0ADDED0A0A30EEBE
:100F4000200A8DED0B0A9DED0A0ADDED0D0A30EE4B
:100F5000600A8DED0C0A9DED050ADDED0A0A20EE12
:100F6000200ADDED070A9DED0C1A00EE810ADDED89
:100F7000060A9DED0B1A00EE810ABDEEC00A10EEC6
:100F8000100A9DED0A0A8DED0D0AA04200DD2046F3
:100F90006242904200DA604230BC5DF814FB00000F
:100FA00038B51249C87A05F0DDF911480068114BCF
:100FB000114A12490090012005F020F90D480268FD
:100FC0000D4801680D480068FFF710FF0C4CA4891C
:100FD00023B20B4C248922B2094CA48821B2084CBC
:100FE000248820B2FFF752FE38BD0000300A0020EE
:100FF000BC000020B8000020B4000020B000002099
:10100000500B00204548D0ED000A454890ED000AFD
:10101000B8EEC00A30EEC00ADFED420AB4EEE00AD4
:10102000F1EE10FA05DD40480068401E3E490860B8
:1010300015E03A48D0ED000A394890ED000AB8EEC4
:10104000C00A30EEC00ADFED390AB4EEE00AF1EE74
:1010500010FA04D234480068401C33490860344810
:10106000D0ED000A334890ED000AB8EEC00A30EE29
:10107000C00ADFED2C0AB4EEE00AF1EE10FA05DD4D
:101080002D480068401E2C49086015E02848D0ED26
:10109000000A284890ED000AB8EEC00A30EEC00AF7
:1010A000DFED220AB4EEE00AF1EE10FA04D2224893
:1010B0000068401C204908601B4800684FF4B47168
:1010C000484300EE100AB8EEC00A1448D0ED000AFA
:1010D00030EE200A194880ED000A1748006848439E
:1010E00000EE100AB8EEC00A1148D0ED000A30EE4A
:1010F000200A134880ED000A084890ED000ABDEE72
:10110000C00A074880ED000A094890ED000ABDEECC
:10111000C00A084880ED000A0020704770000020D7
:101120008C0000200000964394000020000096C32D
:101130007400002090000020980000207C00002017
:101140008000002010B5024801F028FD10BD00000D
:101150003406002010B5FE48C06C0068FD49884286
:1011600076D9FC4854380068F949C96C0968FA4ACC
:10117000914201D1202169E0F549C96C0968F54A1D
:10118000483A914201D1202160E0F149C96C0968D7
:10119000F14A6032914201D1202157E0EC49C96CFB
:1011A0000968EC4A1832914201D120214EE0E84909
:1011B000C96C0968E84A1832914201D1C91445E066
:1011C000E349C96C0968E34A303A914201D1C91434
:1011D0003CE0DF49C96C0968DF4A7832914201D1AD
:1011E000C91433E0DA49C96C0968DA4A30329142ED
:1011F00001D1C9142AE0D649C96C0968D64A3032EF
:10120000914202D14FF4001120E0D149C96C096824
:10121000D04A183A914202D14FF4001116E0CC495D
:10122000C96C0968CC4A9032914202D14FF4001146
:101230000CE0C749C96C0968C64A4832914203D1DB
:101240004FF4001102E003E04FF00061084070E14C
:10125000BF48C06C0068C049A831884276D9BD48F3
:1012600058380068BA49C96C0968BB4A914201D133
:10127000202169E0B649C96C0968B64A483A9142EA
:1012800001D1202160E0B249C96C0968B24A6032DC
:10129000914201D1202157E0AD49C96C0968AD4A9E
:1012A0001832914201D120214EE0A949C96C096848
:1012B000A94A1832914201D1C91445E0A449C96C28
:1012C0000968A44A303A914201D1C9143CE0A049CE
:1012D000C96C0968A04A7832914201D1C91433E03F
:1012E0009B49C96C09689B4A3032914201D1C914AB
:1012F0002AE09749C96C0968974A3032914202D175
:101300004FF4001120E09249C96C0968914A183ADB
:10131000914202D14FF4001116E08D49C96C096861
:101320008D4A9032914202D14FF400110CE088496D
:10133000C96C0968874A4832914203D14FF40011C1
:1013400002E003E04FF000610840F2E08048C06C2A
:10135000006881494831884276D97F481038406812
:101360007B49C96C09687C4A914201D1202169E01E
:101370007749C96C0968774A483A914201D12021DE
:1013800060E07349C96C0968734A6032914201D1C7
:10139000202157E06E49C96C09686E4A18329142A3
:1013A00001D120214EE06A49C96C09686A4A1832A5
:1013B000914201D1C91445E06549C96C0968654A83
:1013C000303A914201D1C9143CE06149C96C0968C5
:1013D000614A7832914201D1C91433E05C49C96C49
:1013E00009685C4A3032914201D1C9142AE0584957
:1013F000C96C0968584A3032914202D14FF4001149
:1014000020E05349C96C0968524A183A914202D106
:101410004FF4001116E04E49C96C09684E4A9032EB
:10142000914202D14FF400110CE04949C96C09689E
:10143000484A4832914203D14FF4001102E003E0E0
:101440004FF00061084074E043481038006840499C
:10145000C96C0968404A914201D1202168E03C49A9
:10146000C96C09683B4A483A914201D120215FE0AA
:101470003749C96C0968384A6032914201D120214C
:1014800056E03349C96C0968324A1832914201D199
:1014900020214DE02E49C96C09682F4A183291422B
:1014A00001D1C91444E02A49C96C0968294A303A73
:1014B000914201D1C9143BE02549C96C0968264A0B
:1014C0007832914201D1C91432E02149C96C0968CE
:1014D000204A3032914201D1C91429E01C49C96C1B
:1014E00009681D4A3032914202D14FF400111FE0C9
:1014F0001749C96C0968174A183A914202D14FF44A
:10150000001115E01249C96C0968134A90329142E2
:1015100002D14FF400110BE00D49C96C09680D4A66
:101520004832914202D14FF4001101E04FF00061C6
:10153000084000286FD00648C06C00680549884202
:101540007BD90348C06C00680349884208D105E094
:101550001C0300205864024010600240202068E014
:10156000FE48C06C0068FE49884201D1202060E03E
:10157000FA48C06C0068FB49884201D1202058E03D
:10158000F648C06C0068F6496031884201D12020DD
:101590004FE0F248C06C0068F2494839884201D1F6
:1015A000C01446E0ED48C06C0068ED49183188422F
:1015B00001D1C0143DE0E948C06C0068E949183128
:1015C000884201D1C01434E0E448C06C0068E449AA
:1015D0007831884201D1C0142BE0E048C06C00682B
:1015E000E0493039884202D14FF4001021E0DB4855
:1015F000C06C0068DA493031884202D14FF40010E3
:1016000017E0D648C06C0068D6493031884204D112
:101610004FF400100DE0DFE10FE0D048C06C00682F
:10162000CF499031884202D14FF4001001E04FF0D1
:101630000060CB49091F08606AE1C848C06C0068B7
:10164000C8494831884274D9C448C06C0068C5494B
:101650006039884201D1202066E0C048C06C006833
:10166000BF49884201D120205EE0BC48C06C0068C0
:10167000BC49884201D1202056E0B848C06C0068BF
:10168000B7496031884201D120204DE0B348C06C99
:101690000068B4494839884201D1C01444E0AF48D9
:1016A000C06C0068AE491831884201D1C0143BE0DB
:1016B000AA48C06C0068AB491831884201D1C014F7
:1016C00032E0A648C06C0068A5497831884201D153
:1016D000C01429E0A148C06C0068A2493039884292
:1016E00002D14FF400101FE09C48C06C00689C4978
:1016F0003031884202D14FF4001015E09748C06C99
:10170000006898493031884202D14FF400100BE054
:101710009248C06C006892499031884202D14FF4DF
:10172000001001E04FF000608D4908390860EFE0DB
:10173000FFE78A48C06C00688A491839884274D922
:101740008648C06C006887496039884201D12020F2
:1017500066E08248C06C00688149884201D120203F
:101760005EE07E48C06C00687E49884201D120203E
:1017700056E07A48C06C006879496031884201D1EE
:1017800020204DE07548C06C006876494839884291
:1017900001D1C01444E07148C06C00687049183130
:1017A000884201D1C0143BE06C48C06C00686D49B0
:1017B0001831884201D1C01432E06848C06C00681A
:1017C00067497831884201D1C01429E06348C06C70
:1017D000006864493039884202D14FF400101FE09C
:1017E0005E48C06C00685E493031884202D14FF4D7
:1017F000001015E05948C06C00685A4930318842E1
:1018000002D14FF400100BE05448C06C00685449FA
:101810009031884202D14FF4001001E04FF0006097
:1018200050497039C86073E0FFE74C48C06C0068ED
:101830004C496039884201D1202066E04748C06C9D
:1018400000684749884201D120205EE04348C06CCF
:1018500000684449884201D1202056E03F48C06CCE
:1018600000683F496031884201D120204DE03B486B
:10187000C06C00683B494839884201D1C01444E03B
:101880003648C06C006836491831884201D1C0140E
:101890003BE03248C06C006832491831884201D1BF
:1018A000C01432E02D48C06C00682D497831884260
:1018B00001D1C01429E02948C06C00682949303999
:1018C000884202D14FF400101FE02448C06C006829
:1018D00023493031884202D14FF4001015E01F48EF
:1018E000C06C00681F493031884202D14FF40010AB
:1018F0000BE01A48C06C006819499031884202D147
:101900004FF4001001E04FF0006016497039886014
:101910001548007800F0020078B11348007820F0F4
:101920000200114908700846007840F00400087071
:10193000012211460D4801F05CFC0D48007800F0D2
:101940000200E0B10A48007820F00200084908705F
:101950000846007840F0040008700BE01C030020EB
:1019600010640240706002406900002000040240E0
:101970006A00002001221021184801F03AFC1848A2
:10198000007800F0020078B11548007820F00200DD
:10199000134908700846007840F0040008700122DE
:1019A00010210E4801F025FC09F01CFC0D480078C0
:1019B00000F0040080B10B48007820F004000949D1
:1019C00008700846007840F0080008700648006873
:1019D00040F001000449086010BD00000000024012
:1019E0006B00002069000020103C0140014608788F
:1019F00010381823B0FBF3F20848805CC865032A4E
:101A000005D908686FF30900001D886503E00868C0
:101A10006FF309008865886D704700004CBA0008B4
:101A2000014600208A6A8B69CBB932B1012A0DD0F8
:101A3000022A03D0032A10D10EE000BFCB6A03F0C4
:101A40008073B3F1807F00D1012007E0CB6AB3F14E
:101A5000C07F00D1012001E000E000BF34E08B69CD
:101A6000B3F5005F1AD132B1012A07D0022A03D0A0
:101A7000032A11D10AE000BF01200EE0CB6A03F077
:101A80008073B3F1807F00D1012006E0CB6AB3F10F
:101A9000C07F00D1012000E000BF15E032B1012A73
:101AA00005D0022A04D0032A0CD103E000BF00BFF6
:101AB000012008E0CB6A03F08073B3F1807F00D18E
:101AC000012000E000BF00BF7047704710B5012043
:101AD00001F078FA10BD10B5082001F073FA10BDBE
:101AE00010B5102001F06EFA10BD10B5202001F0E5
:101AF00069FA10BD7047000002460D4B93ED000AD5
:101B0000F7EE000A70EEC00A91ED000AB8EEC00AC6
:101B100060EE800A93ED001A00EE102AB8EEC00ABB
:101B200041EE000ABDEEE00A10EE100A08607047B0
:101B3000F000002070B58AB005460E4614462422F7
:101B400008496846FEF7CDFB0748B0F90210054882
:101B500008380CC8204604F03FF90449086000200A
:101B60000AB070BD000D0020E207002070010020C7
:101B700010B500F0E3F81249C87A00F04BF91148AB
:101B800001681148006804F079FA104908600D48AE
:101B900001680F48006804F0E3F90E49086000236B
:101BA0001A460D48008801B20848008800B2FFF7C5
:101BB00095F80848008800B2FFF71CF8002010BD17
:101BC000300A0020040100202401002034010020FC
:101BD00028010020380100206C01002010B5234AA4
:101BE000A2F10C01101DFEF7FBFE214B1F4A0C3A1F
:101BF00002F110019FED1F0A1F48FEF775FE1F4BF3
:101C00001A1F111F1C4809F0D3F91C48083890ED21
:101C1000000ADFED1B0A20EE200ADFED1A0A80EE33
:101C2000201A194880ED001A1448083890ED010A6E
:101C3000DFED130A20EE200ADFED120A80EE201AF3
:101C4000124880ED001A0D48083890ED020ADFEDC9
:101C50000C0A20EE200ADFED0B0A80EE201A0C4859
:101C600080ED001AFFF7CEF9012010BDB00600206C
:101C7000C80600206F12833A1C070020340700209A
:101C80000000B443DA0F49407000002074000020C7
:101C90007800002010B50A2001F016F902E0322089
:101CA00001F012F9FEF781FE0028F8D114A007F028
:101CB000C9FE174AA2F10C01101DFEF791FEDFEDDF
:101CC000150A9FED150A154A0021154804F066FA19
:101CD000144A0F490C391448FEF7F2FD134802F07C
:101CE0008DF908B1FFF706FF08221149114806F0E7
:101CF0001DFF012010490870FFF770FF012010BD83
:101D0000424D49303838205245414459200D0A008F
:101D1000B00600200080894500A08C456CBA000800
:101D2000D4060020C80600201C0700201C03002049
:101D300048000020500000206D0000202D48008841
:101D40002D490968081A41F27071884205DD2B4857
:101D50000068401C294908600DE026480088264993
:101D60000968401A41F27071884204DD2348006816
:101D7000401E224908602248008822490968081A42
:101D800041F27071884205DD1F480068401C1E4901
:101D900008600DE01A4800881A490968401A41F2A3
:101DA0007071884204DD18480068401E16490860BA
:101DB000134800881449096801EB410202EB013124
:101DC00000EB4100114908600A4800880B49096886
:101DD00001EB410202EB013100EB41000C490860CC
:101DE00004480088044908600548008805490860DF
:101DF00001207047B00700203C0100204401002072
:101E0000BA070020400100204801002030010020D6
:101E10002C01002010B52DED088B0446012C13D0A9
:101E2000032C31D11B4880891B4909680A2212FB07
:101E30000010194908601748C0891849096812FB41
:101E400000101649086020E01249B1F90200FEF7BF
:101E500085FB41EC1B0B9FED120B53EC102BFEF797
:101E60000BFB41EC190B0D480068FEF777FB41ECCA
:101E70001A0B53EC192BFEF758FA41EC180BFEF72E
:101E80007EFB0649086000E000BF00BF0120BDECFA
:101E9000088B10BD300A00202401002028010020FA
:101EA0009A9999999999B93F10B5024692F82030BC
:101EB000012B01D0022B06D1106840690843146839
:101EC0006061002010BD506A40F480205062012003
:101ED000F8E7F0B504460D461E4694F820702068D9
:101EE0008368A86800B900E000BF012F01D0022F6D
:101EF0007CD103F0806030B903F0006018B903F0C2
:101F00008050002873D0C3F30161022905D9606AAB
:101F100040F4000060620120F0BD01208840306084
:101F2000A86860B9B5F800C0E86840EA4C5C206871
:101F300000F5C07000EB0110C0F800C00FE0D5E95B
:101F400001C040EACC00D5F80CC040EA0C00D4F83F
:101F500000C00CF5C07C0CEB011CCCF80000D5F8DF
:101F600010C0206800F5C07000EB0110C0F804C07C
:101F7000287D01280ED1206800F5C07000EB01100B
:101F8000406840F4807C206800F5C07000EB0110D0
:101F9000C0F804C0D079000692F806C040EA0C40B0
:101FA00092F805C040EA0C2C10794CEA000C20682D
:101FB00000F5C07000EB0110C0F80CC0D07800062E
:101FC00092F802C040EA0C4092F801C040EA0C20AE
:101FD00092F800C040EA0C00D4F800C00CF5C07CB8
:101FE0000CEB011CCCF80800206801E016E00FE0C3
:101FF00000F5C07000EB0110006840F0010C206893
:1020000000F5C07000EB0110C0F800C0002083E7AD
:10201000606A40F40010606201207DE7606A40F46D
:1020200080206062012077E7F0B504460A46216807
:1020300094F82050012D01D0022D7ED1424901F5A6
:102040000071086840F001000860086820F47C50C6
:1020500008600868566A40EA06200860107D00F0B3
:102060001F06012000FA06F3C8699843C861A1F56C
:102070000071D069C8B9D1F80C029843C1F80C02BC
:10208000908880B2968940EA064601F5107057693B
:1020900040F83760108880B2168940EA064601F59C
:1020A0001070576900EBC7004660D069012819D14C
:1020B000D1F80C021843C1F80C02908880B216883F
:1020C00040EA064601F51070576940F8376090897C
:1020D00080B2168940EA064601F51070576900EB98
:1020E000C7004660906928B9D1F804029843C1F846
:1020F000040204E0D1F804021843C1F80402106994
:1021000028B9D1F814029843C1F8140204E0D1F8B8
:1021100014021843C1F81402106A012804D1D1F83E
:102120001C021843C1F81C02D1F8000220F0010083
:10213000C1F800020020F0BDFFE7606A40F4802093
:1021400060620120F7E7000000640040704770B54E
:10215000044694F82050012D01D0022D7CD151B9B4
:102160002068C06800F0030080B9606A40F4001085
:102170006062012070BD2068006900F0030028B98A
:10218000606A40F4001060620120F3E7206800F507
:10219000D87000EB0110006800F0040090609068B7
:1021A00040B9206800F5D87000EB01100068400DC0
:1021B000106007E0206800F5D87000EB011000689F
:1021C000C0085060206800F5D87000EB011000686E
:1021D00000F002004008D060206800F5D87000EBE5
:1021E0000110406800F00F001061206800F5D87001
:1021F00000EB0110406800F47F40000A9061206805
:1022000000F5D87000EB01104068000C50612068A8
:1022100000F5D87000EB011080681870206800F598
:10222000D87000EB0110806800F47F40000A5870FD
:10223000206800F5D87000EB0110806800F47F0082
:10224000000C9870206800F5D87000EB01108068D1
:10225000000ED870206800E031E000F5D87000EB87
:102260000110C0681871206800F5D87000EB0110EB
:10227000C06800F47F40000A5871206800F5D870EB
:1022800000EB0110C06800F47F00000C987120681A
:1022900000F5D87000EB0110C068000ED87131B99C
:1022A0002068C06840F020002668F06005E02068E3
:1022B000006940F020002668306100205AE7606A1B
:1022C00040F480206062012054E72DE9F05F04466D
:1022D0000025206846692068D0F804902068876847
:1022E0002068D0F80CA02068D0F810B02068D0F892
:1022F000188006F00100002855D007F00100C0B199
:1023000001202168886007F0020018B1204600F023
:102310003EFC0EE007F0040010B145F4006508E053
:1023200007F0080010B145F4805502E0204600F0A7
:102330002DFC07F48070C8B14FF48070216888606C
:1023400007F4007018B1204600F023FC0EE007F4FB
:10235000806010B145F4005508E007F4006010B14A
:1023600045F4804502E0204600F012FC07F480307E
:10237000C8B14FF480302168886007F4003018B18C
:10238000204600F008FC0EE007F4802010B145F470
:10239000004508E007F4002010B145F4803502E064
:1023A000204600F0F7FB06F0080038B10AF01000F4
:1023B00020B145F4007510202168C86006F00400C3
:1023C00040B10AF0080028B108202168C860204602
:1023D00000F00CFA06F0020038B12068C06800F086
:1023E000030010B1204600F003FA06F0400038B1B7
:1023F0000BF0100020B145F48065102021680861C1
:1024000006F0200040B10BF0080028B10820216838
:102410000861204600F088FB06F0100038B1206803
:10242000006900F0030010B1204600F07EFB06F4C6
:10243000003040B109F0100028B110202168486038
:10244000204600F073FB06F4803040B109F008002C
:1024500028B1082021684860204600F09DFB06F462
:10246000004088B309F0040078B306F4807020B10E
:1024700008F0010008B145F0010506F4007020B134
:1024800008F0020008B145F0020506F4806020B1B2
:1024900008F0040008B145F0040506F40060A0B19E
:1024A00008F0700088B108F07000402817D006DCF2
:1024B00010280BD020280CD0302819D10CE050283F
:1024C00010D0602814D110E01DE019E045F0080597
:1024D0000FE045F010050CE045F0200509E045F05F
:1024E000400506E045F0800503E045F4807500E016
:1024F00000BF00BF2068806920F0700021688861FB
:102500000420216848602DB1606A2843606220463B
:10251000FFF71CFEBDE8F09F70B504460CB9012022
:1025200070BD94F8200010B9204600F0AFF8206884
:10253000006820F002002168086000F061FE054696
:102540000DE000F05DFE401B0A2808D9606A40F4E7
:1025500000306062052084F820000120E0E7206858
:10256000406800F002000028EBD12068006840F0CD
:1025700001002168086000F043FE05460DE000F010
:102580003FFE401B0A2808D9606A40F400306062B0
:10259000052084F820000120C2E72068406800F090
:1025A00001000028EBD0207E012806D120680068B9
:1025B00040F080002168086005E02068006820F095
:1025C000800021680860607E012806D120680068CC
:1025D00040F040002168086005E02068006820F0B5
:1025E000400021680860A07E012806D120680068AC
:1025F00040F020002168086005E02068006820F0B5
:10260000200021680860E07E012806D1206800686B
:1026100020F010002168086005E02068006840F0A4
:10262000100021680860207F012806D1206800681A
:1026300040F008002168086005E02068006820F08C
:10264000080021680860607F012806D120680068C2
:1026500040F004002168086005E02068006820F070
:10266000040021680860D4E9020108432169084395
:10267000616908436168491E08432168C8610020F8
:102680006062012084F82000002049E710B586B080
:102690000446142101A8FDF73DFE4E4920688842FA
:1026A00041D14D480068401C4B490860084600680D
:1026B00001280FD100BF002000904848006840F07A
:1026C0000070464908600846006800F000700090FD
:1026D00000BF00BF00BF00200090404810380068D5
:1026E00040F008003D49103908600846006800F0D5
:1026F0000800009000BF00BF03200190022002905C
:1027000000200390032004900920059001A934487B
:1027100000F066FC00220521142001F0BBF8142013
:1027200001F0A8F854E02F492068884250D100BF3A
:10273000002000902948006840F080602749086028
:102740000846006800F08060009000BF00BF22488B
:102750000068401C204908600846006801280FD125
:1027600000BF002000901D48006840F000701B4929
:1027700008600846006800F00070009000BF00BFCD
:1027800000BF0020009015481038006840F002009B
:102790001249103908600846006800F002000090F5
:1027A00000BF00BF60200190022002900020039033
:1027B000032004900920059001A90B4800F010FCAB
:1027C00000220521402001F065F8402001F052F878
:1027D00006B010BD006400402800002040380240D0
:1027E000000C0240006800400004024070470000F6
:1027F00010B58AB0044601AB03AA00212046FFF7BA
:10280000A6FCBE48844276D10398A0F2FF100828A7
:1028100072D2DFE800F0A8F4041F3A55728D9DF8DB
:1028200005009DF8041040EA0120B54908809DF894
:1028300007009DF8061040EA012000B2B049488028
:102840009DF809009DF8081040EA012000B2AC494B
:102850008880D5E09DF805009DF8041040EA01202D
:10286000A74948819DF807009DF8061040EA01201D
:1028700001B2A34881819DF809009DF8081040EA43
:10288000012001B29E48C181BAE09DF805009DF883
:10289000041040EA01209A4988829DF807009DF8BB
:1028A000061040EA012001B29548C1829DF8090056
:1028B0009DF8081040EA012001B2914801839FE091
:1028C0009DF805009DF8041040EA01208C49C8835A
:1028D0009DF807009DF8061040EA012001B28848E3
:1028E00001849DF809009DF8081040EA012001B21A
:1028F0008348418484E084E081E09DF805009DF8F0
:10290000041040EA01207F4908809DF807009DF8E7
:10291000061040EA012000B27A4948809DF809007B
:102920009DF8081040EA012000B27649888067E0EF
:102930009DF805009DF8041040EA012072490880C6
:102940009DF807009DF8061040EA012000B26E498C
:1029500048809DF809009DF8081040EA012000B267
:10296000694988804CE00398401E68490870084611
:10297000007800EB8000664931F8100000B263492E
:10298000097801EB8101624A02EB410108819DF85F
:1029900005009DF8041040EA01205C49097801EB2C
:1029A000810122F811009DF807009DF8061040EA09
:1029B000012000B25549097801EB810102EB410188
:1029C00048809DF809009DF8081040EA012000B2F7
:1029D0004E49097801EB810102EB410188809DF8A5
:1029E0000A004A49097801EB810102EB4101887133
:1029F00046490978491CC8B208F038FA00E000BF1F
:102A000079E04448844276D10398A0F2012000B3D3
:102A1000012839D0022852D005286BD19DF8050035
:102A20009DF8041040EA01203B4908809DF807000A
:102A30009DF8061040EA012000B2374948809DF811
:102A400009009DF8081040EA012000B23249888050
:102A500050E09DF805009DF8041040EA01202F4940
:102A600008809DF807009DF8061040EA012000B29A
:102A70002A4948809DF809009DF8081040EA012085
:102A800000B22649888035E09DF805009DF80410C5
:102A900040EA0120224908809DF807009DF80610B1
:102AA00040EA012000B21E4948809DF809009DF8C7
:102AB000081040EA012000B2194988801AE09DF808
:102AC00005009DF8041040EA0120164908809DF891
:102AD00007009DF8061040EA012000B21149488025
:102AE0009DF809009DF8081040EA012000B20D4948
:102AF000888000BF00BF0AB010BD0000A002002007
:102B0000EC070020B0070020D8070020AC00002010
:102B10003807002078020020BA070020C4070020F0
:102B2000CE070020E207002070477047704770B55D
:102B3000044694F82000012822D1022084F82000C5
:102B40002068006820F001002168086000F058FB50
:102B500005460DE000F054FB401B0A2808D9606AC6
:102B600040F400306062052084F82000012070BD30
:102B70002068406800F001000028EBD16062F6E7B1
:102B8000606A40F4002060620120F0E770477047FF
:102B9000704770477047704770470000F8B50446AB
:102BA000002000908C4800684FF41651B0FBF1F7FC
:102BB000A56D2E6894F85C1008208840304098B1CC
:102BC0002068006800F0040070B12068006820F000
:102BD00004002168086094F85C1008208840A86010
:102BE000606D40F00100606594F85C100120884041
:102BF000304068B12068406900F0800040B194F82E
:102C00005C1001208840A860606D40F002006065A3
:102C100094F85C1004208840304068B12068006857
:102C200000F0020040B194F85C1004208840A860D5
:102C3000606D40F00400606594F85C1010208840DE
:102C4000304078B32068006800F0080050B394F872
:102C50005C1010208840A8602068006800F4802084
:102C600080B12068006800F4002028B9206CC8B149
:102C70002046216C884715E0A06C98B12046A16CD5
:102C800088470FE02068006800F4807028B9206849
:102C9000006820F0080021680860206C10B1204610
:102CA000216C884794F85C10202088403040002830
:102CB00065D02068006800F0100000285FD094F80C
:102CC0005C1020208840A86094F83500052828D1A1
:102CD0002068006820F016002168086020684069BC
:102CE00020F0800021684861206C08B9A06C28B1F0
:102CF0002068006820F008002168086094F85C10E3
:102D00003F208840A86000BF002084F8340000BF46
:102D1000012084F83500206D10B12046216D8847D0
:102D2000F8BD2068006800F4802080B12068006849
:102D300000F4002028B9606C10B12046616C88470F
:102D40001DE0E06BD8B12046E16B884717E02068B2
:102D5000006800F4807068B92068006820F01000F6
:102D60002168086000BF002084F8340000BF012003
:102D700084F83500E06B10B12046E16B8847606D48
:102D800038B3606D00F00100F0B1052084F8350023
:102D90002068006820F001002168086000BF0098EA
:102DA000401C0090B84200D905E02068006800F09F
:102DB00001000028F3D100BF00BF002084F83400D8
:102DC00000BF012084F83500E06C10B12046E16CB2
:102DD000884700BFA4E70000380000202DE9F0413B
:102DE0000446002500F00CFA074614B90120BDE89E
:102DF000F081606A00B100BF00BF002084F8340099
:102E000000BF022084F835002068006820F001002F
:102E1000216808600AE000F0F3F9C01B052805D915
:102E200020206065032084F83500E0E72068006812
:102E300000F001000028EED1206805682148054017
:102E4000D4E901010843E168084321690843616945
:102E50000843A1690843E1690843216A084305431F
:102E6000606A042803D1D4E90B01084305432068B4
:102E700005602068456925F00705606A0543606ABA
:102E800004280DD1A06A0543E06A48B12046FEF748
:102E9000C7FD28B140206065012084F83500A6E711
:102EA000206845612046FEF7A1FD064694F85C10B7
:102EB0003F208840B06000206065012084F8350024
:102EC000002094E73F8010F070B5044600F098F9B8
:102ED00006462546681C10B104480078054400BF2A
:102EE00000F08EF9801BA842FAD370BD3400002098
:102EF00010B50446102C12D12948007840F001008A
:102F0000274908702748007840F0010025490870DB
:102F100025480078002841D008F064F93EE0202CD4
:102F20000BD12248007840F00100204908701E486B
:102F3000007898B308F056F930E0082C19D11C48F5
:102F4000007840F001001A4908700846007800F047
:102F50000100087010B30846007820F001000870E6
:102F60000846007840F002000870124808F03EFA67
:102F700014E0012C12D108F0EDFC01280ED00E490E
:102F80000E48006808F040FC0B48006830B120078C
:102F90000B490860BFF34F8FBFF36F8F10BD000068
:102FA0006A0000206B0000206D00002069000020F6
:102FB0006C000020C806002088000020440000208B
:102FC00004ED00E010B5044604480068204020B13C
:102FD000024804602046FFF78BFF10BD143C0140FF
:102FE000F8B502460B460025002400200021DCE055
:102FF000012606FA01F51E6806EA0504AC4273D103
:103000005E68022E02D05E68122E13D1CF0802F144
:10301000200656F827004E07F70E0F26BE40B04395
:103020004F07FF0E1E69BE403043CF0802F1200655
:1030300046F8270010684F000326BE40B0431E79B3
:1030400006F003064F00BE40304310605E68012E5C
:1030500008D05E68022E05D05E68112E02D05E6830
:10306000122E13D190684F000326BE40B0434F008C
:10307000DE68BE4030439060506801268E40B04309
:103080001E79C6F300168E4030435060D0684F0062
:103090000326BE40B0434F009E68BE403043D06020
:1030A0005E6806F08056B6F1805F7DD100BF0026D5
:1030B0000096404E366846F480463E4F3E603E469F
:1030C000366806F48046009600BF00BF3A4E8F086F
:1030D00056F827008E07370F0F26BE40B043374EF5
:1030E000B24202D1002624E05EE0354EB24201D168
:1030F00001261EE0334EB24201D1022619E0324EC3
:10310000B24201D1032614E0304EB24201D104266E
:103110000FE02F4EB24201D105260AE02D4EB242F9
:1031200001D1062605E02C4EB24201D1072600E06F
:1031300008268F073F0FBE4030431F4E8F0846F8CA
:103140002700264E3068A0435E6806F48036B6F548
:10315000803F00D12043214E3060361D3068A043AF
:103160005E6806F40036B6F5003F00D120431B4EE2
:10317000361D3060361D3068A0435E6806F4801648
:10318000B6F5801F00D12043144E08363060361D3E
:103190003068A0435E6806F40016B6F5001F00D143
:1031A00020430E4E0C363060491C1029FFF420AF2E
:1031B000F8BD0000443802400838014000000240D9
:1031C0000004024000080240000C024000100240CF
:1031D0000014024000180240001C0240003C014064
:1031E00042690A408A4202D10A04826100E0816198
:1031F00070470AB1816101E00B04836170470000F0
:1032000001480068704700002C00002070B504469B
:103210000CB9012070BD94F83D0028B9002084F855
:103220003C00204600F048FA242084F83D00206845
:10323000006820F001002168086000F043FC0546AA
:103240005C496068884206D85B48854201D201200B
:1032500007E0002005E05948854201D2012000E046
:103260000020012800D1D5E75548B5FBF0F62068CD
:10327000406820F03F003043216848604D49606855
:10328000884201D8701C07E04FF4967070434FF4E9
:103290007A71B0FBF1F0401C2168096A21F03F010E
:1032A00008432168086243496068884214D8681E50
:1032B00061684900B0FBF1F0401CC0F30B0004282A
:1032C00001D204203DE0681E61684900B0FBF1F0C6
:1032D000401CC0F30B0034E0A06838B9681E616878
:1032E00001EB4101B0FBF1F0401C0AE0681E61688F
:1032F00001EBC10202EB0111B0FBF1F0401C40F404
:103300008040C0F30B0008B901201AE0A06848B95A
:10331000681E616801EB4101B0FBF1F0401CC0F395
:103320000B000CE0681E616801EBC10202EB0111A9
:10333000B0FBF1F0401CC0F30B0040F4804040F4BF
:1033400000402168C9694CF6FF7291430843216827
:10335000C861D4E9070108432168096821F0C00168
:10336000084321680860D4E903100843216889688C
:1033700048F2FF329143084321688860D4E905018F
:1033800008432168C96821F0FF0108432168C8602B
:103390002068006840F00100216808600020206477
:1033A000202084F83D000020206384F83E0000BF08
:1033B00030E70000A086010080841E0000093D0067
:1033C00040420F002DE9FC5F04460F4690469946A7
:1033D000DDE90CAB0E9EFFF713FF054694F83D00A8
:1033E000202870D119230122B0492046009501F010
:1033F0004DFE10B10220BDE8FC9F00BF94F83C00D8
:10340000012801D10220F6E7012084F83C0000BF2A
:103410002068006800F0010028B92068006840F0CA
:103420000100216808602068006820F400602168BD
:103430000860222084F83D00402084F83E000020EF
:103440002064C4F824A0A4F82AB0608D2085984890
:10345000E0624B46424639462046CDE9006501F020
:1034600079FD08B10120C6E7208D88B900BF002092
:10347000019020684069019020688069019000BF38
:1034800000BF2068006840F400702168086040E0D8
:10349000208D012818D12068006820F48060216800
:1034A000086000BF002001902068406901902068FA
:1034B0008069019000BF00BF2068006840F4007080
:1034C0002168086025E0EFE0208D022816D12068F1
:1034D000006820F48060216808602068006840F47B
:1034E00000602168086000BF0020019020684069EA
:1034F000019020688069019000BF0AE000BF0020B1
:10350000019020684069019020688069019000BFA7
:1035100000BFBAE0208D03287ED8208D012815D168
:103520002A463146204601F056FE08B1012062E7E6
:1035300020680069616A0870606A401C6062208DC2
:10354000401E2085608D401E60859EE0208D0228F3
:103550002AD13346002257492046009501F096FDB6
:1035600008B1012047E72068006840F40070216836
:10357000086020680069616A0870606A401C6062C7
:10358000208D401E2085608D401E6085206800696A
:10359000616A0870606A401C6062208D401E208550
:1035A000608D401E608570E0334600224149204610
:1035B000009501F06BFD08B101201CE72068006850
:1035C00020F480602168086020680069616A0870E2
:1035D000606A401C6062208D401E2085608D401E08
:1035E00060853346002233492046009501F04EFDA8
:1035F00008B10120FFE62068006840F400702168EF
:10360000086020680069616A0870606A401C606236
:10361000208D401E208500E010E0608D401E6085FA
:1036200020680069616A0870606A401C6062208DD1
:10363000401E2085608D401E608526E02A4631466A
:10364000204601F0C8FD08B10120D4E620680069D9
:10365000616A0870606A401C6062208D401E20858F
:10366000608D401E608520684069C0F3800060B1B5
:1036700020680069616A0870606A401C6062208D81
:10368000401E2085608D401E6085208D00287FF4BF
:1036900041AF202084F83D00002084F83E0000BFA8
:1036A00084F83C0000BFA6E60220A4E60200100059
:1036B0000000FFFF0400010010B586B0044614218D
:1036C00001A8FCF727FE2A49206888424DD100BF97
:1036D000002000902748006840F004002549086059
:1036E0000846006800F00400009000BF00BF00BF63
:1036F000002000900846006840F00100086008467D
:10370000006800F00100009000BF00BF4815019064
:1037100012200290012003900320049004200590C1
:1037200001A91548FFF75CFC4FF48070019012204E
:10373000029001200390032004900420059001A929
:103740000E48FFF74DFC00BF0020009009481030E4
:10375000006840F40000074910310860084600681E
:1037600000F40000009000BF00BF06B010BD0000D4
:10377000005C004030380240000802400000024077
:103780000348006803490978084401490860704704
:103790002C0000203400002010B50D48006840F4D3
:1037A00000700B4908600846006840F480600860BB
:1037B0000846006840F480700860032000F0A8F814
:1037C0000F2000F007F800F02BF8002010BD0000DB
:1037D000003C024070B504460E4800784FF47A7100
:1037E000B1FBF0F00C490968B1FBF0F5284600F098
:1037F0000CFE08B1012070BD102C07D2002221461A
:10380000501E00F047F80548046001E00120F2E78F
:103810000020F0E7340000203800002030000020B5
:1038200008B500BF002000901148006840F48040B7
:103830000F4908600846006800F48040009000BF0F
:1038400000BF00BF00200090081F006840F08050BB
:10385000091F08600846006800F08050009000BF13
:1038600000BF00220F21901E00F014F808BD0000D8
:103870004438024001460846002809DB00F01F03D7
:1038800001229A4043099B0003F1E023C3F8002181
:1038900000BF70472DE9F05F80460D4616460027B1
:1038A00006F0F4F8074639462A46334601F0070089
:1038B000C0F1070ABAF1040F02D94FF0040A01E07F
:1038C000C0F1070AD14600F1040ABAF1070F02D28B
:1038D0004FF0000A01E0A0F1030AD4464FF0010ABC
:1038E0000AFA09FAAAF1010A0AEA020A0AFA0CFA21
:1038F0004FF0010B0BFA0CFBABF1010B0BEA030BC6
:103900004AEA0B042146404606F0C8F8BDE8F09F9D
:1039100000BF00F00702064B19684FF6FF0319407D
:10392000044B0B4343EA0221014B196000BF70476F
:103930000CED00E00000FA0570B504460D460CB928
:10394000012070BD5848006800F00F00A84209D25D
:1039500055490D700846006800F00F00A84201D0DC
:103960000120EEE7207800F0020002281DD1207827
:1039700000F00400042805D14C48006840F4E050F1
:103980004A490860207800F00800082805D1474817
:10399000006840F46040454908604448006820F0F1
:1039A000F000A168084341490860207800F0010058
:1039B000A8B36068012807D13C4808380068C0F304
:1039C0004040B8B90120BCE76068022802D06068B6
:1039D000032807D1354808380068C0F3406048B96B
:1039E0000120AEE7314808380068C0F3400008B94C
:1039F0000120A6E72D48006820F003006168084315
:103A00002A490860FFF7FCFB064609E0FFF7F8FBD0
:103A1000801B41F28831884202D9032091E707E0F8
:103A20002248006800F00C006168B0EB810FEDD116
:103A30001D48006800F00F00A84209D91A490D700E
:103A40000846006800F00F00A84201D0012078E786
:103A5000207800F00400042807D11448006820F4FE
:103A6000E050E168084311490860207800F0080040
:103A7000082808D10D48006820F46040216940EA18
:103A8000C1000A49086000F03DF808490968C1F31F
:103A90000311074A515CC840064908600F20FFF730
:103AA00099FE00204DE70000003C0240083802402B
:103AB00054BA000838000020014800687047000030
:103AC0003800002000B5FFF7F7FF04490968C1F38B
:103AD0008221034A515CC84000BD00000838024002
:103AE00064BA000800B5FFF7E7FF04490968C1F3AD
:103AF0004231034A515CC84000BD00000838024012
:103B000064BA00082DE9F047002400250026A146EC
:103B10002548006800F00C0020B1042805D00828D2
:103B20003AD105E0DFF8849039E0DFF8849036E0A0
:103B30001D48001F006800F03F041B48001F00687C
:103B400000F4800078B11A481749091F0968C1F3C9
:103B50008811A0FB01700146224600233846FCF77D
:103B60008FFB05460EE011480F49091F0968C1F394
:103B70008811A0FB01700146224600233846FCF75D
:103B80007FFB05460848001F0068C0F30140401C49
:103B90004600B5FBF6F902E0DFF8109000BF00BF69
:103BA0004846BDE8F0870000083802400024F400D1
:103BB000001BB700F8B504460CB90120F8BD207809
:103BC00000F00100002874D0F948006800F00C00F3
:103BD00004280DD0F648006800F00C00082813D126
:103BE000F348001F006800F48000B0F5800F0BD18F
:103BF000EF4808380068C0F34040002859D060689A
:103C0000002856D10120D9E700BF6068B0F5803F99
:103C100008D1E7480838006840F48030E4490839A2
:103C200008601EE06068B0F5A02F0DD1E0480838AC
:103C3000006840F48020DE490839086008460068C2
:103C400040F4803008600CE0D9480838006820F45F
:103C50008030D749083908600846006820F4802081
:103C6000086000BF606890B1FFF7CAFA054606E039
:103C7000FFF7C6FA401B642801D903209EE7CC4811
:103C800008380068C0F340400028F1D011E0FFF789
:103C9000B7FA054606E0FFF7B3FA401B642801D9DE
:103CA00003208BE7C24808380068C0F34040002872
:103CB000F1D1207800F0020002285FD1BC480068F2
:103CC00000F00C0058B1BA48006800F00C00082859
:103CD0001CD1B748001F006800F48000B0B9B44898
:103CE00008380068C0F3400020B1E068012801D026
:103CF000012063E7AE480838006820F0F800216929
:103D000040EAC100AA490839086037E0E06800B31A
:103D10000120A8490860FFF773FA054606E0FFF79F
:103D20006FFA401B022801D9032047E7A048083852
:103D30000068C0F340000028F1D09D4808380068B2
:103D400020F0F800216940EAC1009949083908606B
:103D500014E0002097490860FFF752FA054606E094
:103D6000FFF74EFA401B022801D9032026E79048AE
:103D700008380068C0F340000028F1D1207800F036
:103D8000080008282CD16069A8B101208A49086080
:103D9000FFF736FA054606E0FFF732FA401B022825
:103DA00001D903200AE782486C300068C0F3400064
:103DB0000028F1D014E000207F490860FFF720FAC6
:103DC000054606E0FFF71CFA401B022801D9032034
:103DD000F4E677486C300068C0F340000028F1D169
:103DE000207800F00400042870D100267048383094
:103DF000006800F0805090B900BF002000906C482F
:103E00003830006840F08050694938310860084611
:103E1000006800F08050009000BF00BF0126674896
:103E2000006800F48070B0B96448006840F48070A5
:103E300062490860FFF7E4F9054606E0FFF7E0F99C
:103E4000401B022801D90320B8E65C48006800F452
:103E500080700028F2D000BFA068012808D1544823
:103E60006830006840F001005149683108601DE089
:103E7000A06805280DD14E486830006840F0040065
:103E80004B49683108600846006840F0010008604E
:103E90000CE047486830006820F001004449683170
:103EA00008600846006820F00400086000BFA068B1
:103EB000A8B1FFF7A5F9054609E0FFF7A1F9401BF6
:103EC00041F28831884202D9032077E626E038485B
:103ED00068300068C0F340000028EED013E0FFF720
:103EE0008FF9054608E0FFF78BF9401B41F2883156
:103EF000884201D9032061E62D4868300068C0F38C
:103F000040000028EFD1012E07D129483830006841
:103F100020F0805026493831086000BFA069B8B34E
:103F20002348006800F00C0008285ED0A069022831
:103F300046D100201F490866FFF762F9054606E0F2
:103F4000FFF75EF9401B022801D9032036E6184826
:103F500008380068C0F340600028F1D1D4E90701B7
:103F60000843616A40EA81110122A06AC2EB500055
:103F700041EA00412C20005D41EA00600C49091F24
:103F8000086001200B490866FFF73AF9054607E08B
:103F90002DE0FFF735F9401B022801D903200DE67B
:103FA000034808380068C0F340600028F1D01EE0E4
:103FB0000838024000004742800E4742007000402F
:103FC00000200C490866FFF71BF9054606E0FFF7DD
:103FD00017F9401B022801D90320EFE506480068C5
:103FE000C0F340600028F2D101E00120E6E50020A6
:103FF000E4E50000000047420038024010B50446E6
:104000000CB9012010BD606A00B900BF0021A16297
:1040100094F8510028B9002084F85000204600F0A0
:1040200033F8022084F851002068006820F0400036
:1040300021680860D4E901010843E1680843216967
:10404000084361690843218B01F400710843E16969
:104050000843216A0843A16A0843216808600421D3
:10406000A06901EA1040616A08432168486020683D
:10407000C06920F400602168C861002060650120EB
:1040800084F851000020BDE710B586B00446142125
:1040900001A8FCF73FF94B49206888427ED100BF58
:1040A000002000904848006840F48050464908606D
:1040B0000846006800F48050009000BF00BF00BFB9
:1040C0000020009040481438006840F002003E494B
:1040D000143908600846006800F00200009000BF34
:1040E00000BF00BF002000900846006840F00100BB
:1040F00008600846006800F00100009000BF00BFA3
:1041000018200190022002900120039003200490C7
:104110000520059001A92D48FEF762FF802001903F
:1041200002200290012003900320049005200590B6
:1041300001A92748FEF754FF2648274908604FF099
:10414000C0604860002124488160C1604FF48061F4
:104150000161002141618161C1614FF4403101621F
:1041600000214162FEF73AFE08B1FDF7C3FC00BF33
:104170001948E064846300BF164818301749086086
:104180004FF0C06048604021144881600021C16048
:104190004FF4806101610021416100E010E0816124
:1041A000C1614FF40031016200214162FEF716FE49
:1041B00008B1FDF79FFC00BF0848A064846300BFFE
:1041C00006B010BD003001404438024000040240F7
:1041D000000002404064024074030020D403002029
:1041E0002DE9FF5F0446884691461D460E9E01203C
:1041F00002900020019000BF94F85000012803D1E4
:10420000022004B0BDE8F09F012084F8500000BFF8
:10421000FEF7F6FF074694F851B060680390AA468F
:10422000BBF1010F0BD00398B0F5827F04D1A068D9
:1042300010B9BBF1040F02D002200190DBE0B8F10D
:10424000000F03D0B9F1000F00D015B90120019083
:10425000D1E094F85100042802D0052084F85100E0
:1042600000206065C4F83890E587A587C4F83080E1
:10427000E586A586206460642068006800F0400040
:10428000402805D02068006840F0400021680860A0
:10429000E068B0F5006F4AD1606810B1BAF1010F63
:1042A00009D1206B00882168C860206B801C2063C6
:1042B000E08E401EE08633E02068806800F0020057
:1042C000022810D1E08E70B1029801280BD1206B2A
:1042D00000882168C860206B801C2063E08E401E2F
:1042E000E086002002902068806800F0010068B13C
:1042F000E08F58B12068C068A16B0880A06B801C5B
:10430000A063E08F401EE08701200290FEF778FF57
:10431000C01BB04204D3701C10B1032001906AE0AE
:10432000E08E0028C8D1E08F0028C5D14AE060683F
:1043300010B1BAF1010F09D1206B00782168087320
:10434000206B401C2063E08E401EE08634E0206835
:10435000806800F00200022810D1E08E70B102984F
:1043600001280BD1206B007821680873206B401C5A
:104370002063E08E401EE086002002902068806866
:1043800000F0010068B1E08F58B12068C068A16BEF
:104390000870A06B401CA063E08F401EE0870120E6
:1043A0000290FEF72DFFC01BB04201D3701C00B974
:1043B00016B9032001901EE0E08E0028C7D1E08FDF
:1043C0000028C4D13A463146204604F06FFC20B1A3
:1043D00001200190202060650DE0A06850B900BF69
:1043E000002000902068C0680090206880680090DD
:1043F00000BF00BF00BF012084F8510000BF0020B3
:1044000084F8500000BF0198FBE670B504462546CD
:10441000681EB0F1807F01D301200FE0681E4FF0CD
:10442000E02148610F214FF0FF3005F037FB0020FD
:104430004FF0E021886107200861002070BD7047BF
:10444000704710B5024600BF92F83C00012801D128
:10445000022010BD012082F83C0000BF022082F83B
:104460003D00106843681068846823F07003086892
:10447000034324F0800448680443106843601068D4
:104480008460012082F83D0000BF002082F83C00DB
:1044900000BF00BFDDE710B504460CB9012010BD18
:1044A00094F83D0028B9002084F83C00204600F034
:1044B0000DF8022084F83D00211D206804F0FCFD69
:1044C000012084F83D000020E9E7000038B50446EB
:1044D0002068B0F1804F18D100BF0020009039480B
:1044E000006840F00100374908600846006800F0A5
:1044F0000100009000BF00BF002205211C20FFF733
:10450000C9F91C20FFF7B6F95AE02F492068884204
:1045100018D100BF002000902A48006840F0020037
:10452000284908600846006800F00200009000BFBB
:1045300000BF002206211D20FFF7ACF91D20FFF768
:1045400099F93DE02149206888420FD100BF002041
:1045500000901C48006840F004001A4908600846B2
:10456000006800F00400009000BF29E018492068AE
:1045700088420FD100BF002000901248006840F030
:104580000800104908600846006800F00800009024
:1045900000BF15E00F492068884211D100BF0020FC
:1045A00000900848001D006840F400300549091DCE
:1045B00008600846006800F40030009000BF00BFAB
:1045C00038BD0000403802400004004000080040B0
:1045D000000C0040004401400146022081F83D00EB
:1045E0000868806800F00702062A05D0086800689D
:1045F00040F001000B681860012081F83D000020A8
:10460000704701460868C06840F001000B68D86038
:104610000868806800F00702062A05D0086800686C
:1046200040F001000B681860002070472DE9F04150
:1046300004460D4600BF94F83C00012802D1022038
:10464000BDE8F081012084F83C0000BF022084F81E
:104650003D002068866826F0770626F47F462068AD
:1046600086602868502833D00CDC202850D004DC29
:1046700000284BD0102851D149E0302849D040289B
:104680004CD139E060282DD0702807D0B0F5805F7C
:1046900003D0B0F5005F41D10DE040E0D5E9021351
:1046A0006A68206804F085FD2068866846F0770611
:1046B0002068866033E0D5E902136A68206804F058
:1046C00078FD2068806840F480402168886026E09A
:1046D000EA686968206804F05DFE5021206804F0F3
:1046E00073FD1CE0EA686968206804F066FE6021DA
:1046F000206804F069FD12E0EA686968206804F047
:1047000049FE4021206804F05FFD08E000BF00BFC3
:1047100000BF2968206804F057FD00E000BF00BF1B
:10472000012084F83D0000BF002084F83C0000BF59
:1047300000BF85E7704710B5044620680069C0F3E4
:104740004000D8B12068C068C0F34000B0B16FF03D
:10475000020021680861012020772068806900F04C
:10476000030018B12046FFF7E5FF05E0204600F002
:104770000FF9204600F0ACF900202077206800698E
:10478000C0F38000D8B12068C068C0F38000B0B129
:104790006FF004002168086102202077206880699A
:1047A00000F4407018B12046FFF7C4FF05E0204632
:1047B00000F0EEF8204600F08BF90020207720680A
:1047C0000069C0F3C000D8B12068C068C0F3C00061
:1047D000B0B16FF0080021680861042020772068DC
:1047E000C06900F0030018B12046FFF7A3FF05E001
:1047F000204600F0CDF8204600F06AF9002020772E
:1048000020680069C0F30010D8B12068C068C0F308
:104810000010B0B16FF01000216808610820207707
:104820002068C06900F4407018B12046FFF782FF8D
:1048300005E0204600F0ACF8204600F049F90020E1
:1048400020772068006900F0010058B12068C06836
:1048500000F0010030B16FF00100216808612046CE
:1048600000F064F920680069C0F3C01058B12068F6
:10487000C068C0F3C01030B16FF0800021680861DB
:104880002046FFF7DCFD20680069C0F3801058B1B6
:104890002068C068C0F3801030B16FF0400021681C
:1048A0000861204600F07AF920680069C0F34010E2
:1048B00058B12068C068C0F3401030B16FF02000DC
:1048C000216808612046FFF7BBFD10BD10B586B01A
:1048D0000446142101A8FBF71DFD274920688842E2
:1048E0001ED100BF002000902448006840F008005E
:1048F000224908600846006800F00800009000BFE8
:1049000000BF4FF4804001900220029000200390ED
:1049100004900220059001A91948FEF761FB28E0E8
:1049200018492068884224D100BF00200090134815
:10493000006840F02000114908600846006800F057
:104940002000009000BF00BF402001900220029094
:1049500001200390022004900320059001A90A4839
:10496000FEF73EFB0948FFF737FE0021074800F03D
:10497000B1F806B010BD0000000800403038024019
:10498000000C0240004401400014024034050020A5
:10499000704770B504460D46164600BF94F83C00BB
:1049A000012801D1022070BD012084F83C0000BF25
:1049B000022084F83D0036B1042E1BD0082E31D0E1
:1049C0000C2E5ED145E02946206804F007FC2068E3
:1049D000806940F00800216888612068806920F0C3
:1049E000040021688861206880692969084321687A
:1049F000886147E02946206804F028FC2068806927
:104A000040F40060216888612068806920F480603B
:104A10002168886120688069296940EA012021684D
:104A200088612FE02946206804F04EFC2068C069A8
:104A300040F008002168C8612068C06920F00400C7
:104A40002168C8612068C069296908432168C86174
:104A500018E02946206804F073FC2068C06940F41F
:104A600000602168C8612068C06920F48060216806
:104A7000C8612068C069296940EA01202168C861CD
:104A800000E000BF00BF012084F83D0000BF00200F
:104A900084F83C0000BF00BF85E710B504460CB9A0
:104AA000012010BD94F83D0028B9002084F83C0096
:104AB000204600F00CF8022084F83D00211D2068FB
:104AC00004F0FAFA012084F83D000020E9E770477D
:104AD0007047000070B504460E460122314620683A
:104AE00004F056FB0F492068884203D00E49206825
:104AF000884201D1012000E0002028B12068406CEC
:104B000040F40040216848642068806800F0070590
:104B1000062D05D02068006840F00100216808607B
:104B2000002070BD000001400004014010B50446A3
:104B30001648844201D1FDF751F81548844223D12B
:104B400014480068401C1349086008464068401C2F
:104B50004860084600680A2801DD002008600D480A
:104B60004068142807DD00200A4948604FF40061BE
:104B70000948FEF735FB012000F018FC04F06CF941
:104B8000FCF7F6FFFCF70CFA10BD000074040020DF
:104B90003404002068020020001C0240704710B559
:104BA00004460CB9012010BDA06900B100E000BFAF
:104BB00094F8390028B9002084F83800204600F025
:104BC00027F8242084F839002068C06820F40050B9
:104BD0002168C860204604F023FC2068006920F4A6
:104BE0009040216808612068406920F02A0021680F
:104BF00048612068C06840F400502168C860002007
:104C0000E063202084F8390084F83A000020CAE7E5
:104C100010B586B00446142101A8FBF77BFB7D4943
:104C20002068884256D100BF002000907A48006872
:104C300040F01000784908600846006800F0100055
:104C4000009000BF00BF00BF0020009072481438E1
:104C5000006840F002007049143908600846006896
:104C600000F00200009000BF00BF00BF00200090D5
:104C70000846006840F0010008600846006800F03F
:104C80000100009000BF00BF802001900220029030
:104C900001200390032004900720059001A95F489C
:104CA000FEF79EF94FF4007001900220029001205F
:104CB0000390032004900720059001A95848FEF7AF
:104CC0008FF9002205212520FEF7E4FD2520FEF7BF
:104CD000D1FD9CE05349206888425BD100BF002091
:104CE00000904D48001F006840F480204A49091F89
:104CF00008600846006800F48020009000BF00BFF4
:104D000000BF0020009044481438006840F00400C0
:104D10004149143908600846006800F0040000901A
:104D200000BF00BF4FF440600190022002900120BC
:104D30000390032004900720059001A93A48FEF74C
:104D40004FF93A483A4908604FF000604860002146
:104D500037488160C1604FF4806101610021416189
:104D60008161C1614FF40031016200214162FEF7AF
:104D700035F808B1FCF7BEFE00BF2D4860638463C0
:104D800000BF002205212720FEF784FD2720FEF723
:104D900071FD3CE027492068884238D100BF0020DF
:104DA00000901D48006840F020001B49086008463C
:104DB000006800F02000009000BF00BF00BF00208E
:104DC000009015481438006840F04000124914392A
:104DD00008600846006800F04000009000BF00BF77
:104DE0004FF48440019002200290012003900320A0
:104DF00004900820059001A90F48FEF7F1F8002261
:104E000005214720FEF746FD4720FEF733FD06B09B
:104E100010BD000000100140443802400004024070
:104E200000000240004800400008024028600240A4
:104E30003406002000140140001802402DE9F84318
:104E400004460D4616461F464FF0000994F83900F7
:104E500020285CD105B116B90120BDE8F88300BF58
:104E600094F83800012801D10220F6E7012084F8E7
:104E7000380000BF0020E063212084F83900FEF7ED
:104E8000BFF98146A684E6842BE0E08C401EE084D6
:104E9000A068B0F5805F16D14B46002280212046E5
:104EA000009704F071FC08B10320D6E7A846B8F8D3
:104EB0000000C0F3080021684860206908B9AD1CF3
:104EC0000FE06D1C0DE04B4600228021204600972C
:104ED00004F05AFC08B10320BFE715F8010B216864
:104EE0004860E08C0028D0D14B460022402120466B
:104EF000009704F049FC08B10320AEE7202084F8B5
:104F0000390000BF002084F8380000BFA5E7022068
:104F1000A3E700BFFEE7014608684069C0F38020B0
:104F2000B0B16FF480600A685061002008632020EF
:104F300081F83D00002081F83E00086C40F004003C
:104F4000086400BF002081F83C0000BF01207047CA
:104F50000020FCE72DE9F84304460F461546994624
:104F6000DDE908862068006840F4806021680860F8
:104F70002068006840F48070216808604346002281
:104F80004FF001112046009600F080F810B101208A
:104F9000BDE8F88307F0FE00216808613346424609
:104FA0003949204600F0B5F808B10120F0E700BF0C
:104FB000002000902068406900902068806900907F
:104FC00000BF00BF32464146204600F044F950B1D0
:104FD000206C042805D12068006840F40070216826
:104FE00008600120D4E7B9F1010F03D1E8B22168CC
:104FF000086117E0C5F30720216808613246414681
:10500000204600F028F950B1206C042805D1206812
:10501000006840F40070216808600120B8E7E8B239
:105020002168086132464146204600F014F950B12B
:10503000206C042805D12068006840F400702168C5
:1050400008600120A4E72068006840F480702168AF
:105050000860434600224FF001112046009600F000
:1050600015F808B1012093E7F8B240F0010021687B
:105070000861334642460449204600F04AF808B128
:10508000012085E7002083E7020001002DE9F041BF
:1050900004460D4617461E46DDF818801CE0701CBD
:1050A000D0B1FEF7ADF8A0EB0800B04200D89EB931
:1050B00000202063202084F83D00002084F83E007A
:1050C000206C40F02000206400BF002084F83C00E9
:1050D00000BF0120BDE8F081C5F3074001280AD1D7
:1050E00020684069A9B20840A9B2884201D10120D4
:1050F0000BE0002009E020688069A9B20840A9B24D
:10510000884201D1012000E00020B842C7D0002031
:10511000E0E72DE9F04104460D4616461F463DE006
:1051200020684069C0F38020E8B12068006840F43E
:105130000070216808606FF4806021684861002079
:105140002063202084F83D00002084F83E00206C7D
:1051500040F00400206400BF002084F83C0000BF41
:105160000120BDE8F081701CC0B1FEF749F8C01BFA
:10517000B04200D896B900202063202084F83D007A
:10518000002084F83E00206C40F02000206400BF26
:10519000002084F83C0000BF0120E2E7C5F307408F
:1051A00001280AD120684069A9B20840A9B2884202
:1051B00001D101200BE0002009E020688069A9B23C
:1051C0000840A9B2884201D1012000E00020002857
:1051D000A6D00020C5E770B504460D46164632E05D
:1051E00020684069C0F30010A0B16FF01000216882
:1051F000486100202063202084F83D00002084F8CE
:105200003E00206C206400BF002084F83C0000BFFA
:10521000012070BDFDF7F4FF801BA84200D895B9AE
:1052200000202063202084F83D00002084F83E0008
:10523000206C40F02000206400BF002084F83C0077
:1052400000BF0120E5E720684069C0F38010002816
:10525000C6D00020DDE770B504460D46164620E0B6
:105260002046FFF758FE08B1012070BD681CC0B190
:10527000FDF7C6FF801BA84200D895B90020206327
:10528000202084F83D00002084F83E00206C40F08F
:105290002000206400BF002084F83C0000BF0120F3
:1052A000E3E720684069C0F3C0100028D8D0002090
:1052B000DBE700007CB53448808A34490860324816
:1052C000848A04F00100ADF8000004F00200ADF89B
:1052D000020004F00400ADF8040004F00800ADF88A
:1052E000060004F49075B5F5907F1DD100BF00BF96
:1052F00000BF00BF00BFBFF34F8F00BF00BF00BFA4
:105300002348006800F4E06022490843001D20495A
:10531000086000BF00BF00BFBFF34F8F00BF00BFDA
:1053200000BF00BF00BFFDE7BDF80000012804D1A9
:1053300019480068194908600BE0BDF8020002280E
:1053400004D1154800681549086002E0002013499F
:105350000860BDF80400042804D111480068114910
:1053600008600CE0BDF80600082805D10C4800686C
:1053700040420C49086002E000200A490860FBF73F
:10538000B3FD094908607CBD300A0020F40000200C
:105390000CED00E00000FA05E4000020B000002061
:1053A000E8000020B4000020B800002070B94FF4DD
:1053B000FA71204A1160204A1160204A116042F2BD
:1053C00028311F4A11601F4A116031E001280ED1B7
:1053D0004FF42F71174A1160174A1160174A116074
:1053E00042F22831164A1160164A116020E0022864
:1053F0000ED14FF461710F4A11600F4A11600F4ACC
:10540000116042F228310E4A11600E4A11600FE01D
:1054100003280DD14FF47A71064A1160064A1160D3
:10542000064A116042F22831054A1160054A1160AE
:1054300070470000E4000020E8000020EC0000209D
:105440004C0100205001002002468A4202DD0A463B
:10545000012070474842824202DA4A420120F8E7BE
:105460000020F6E710B50E480E490860032048609A
:1054700000210C488160C1604FF4102101614FF49C
:10548000001141610021017641768176C176017774
:105490004177FDF741F808B1FCF72CFB10BD000087
:1054A000006400407802002010B50E480E490860E4
:1054B0000320486000210C488160C1604FF4102136
:1054C00001614FF40011416100210176417681763E
:1054D000C17601774177FDF71FF808B1FCF70AFBA9
:1054E00010BD000000680040A002002008B500BF09
:1054F000002000901A48006840F4800018490860B5
:105500000846006800F48000009000BF00BF00BFA4
:10551000002000900846006840F40010086008462B
:10552000006800F40010009000BF00BF00220521B9
:105530000C20FEF7AFF90C20FEF79CF900220521A4
:105540003A20FEF7A7F93A20FEF794F90022052148
:105550003B20FEF79FF93B20FEF78CF908BD0000C9
:105560003038024000B587B0142102A8FAF7D2FE05
:1055700000BF002001906E48006840F002006C49B6
:1055800008600846006800F00200019000BF00BFFC
:1055900000BF002001900846006840F0400008600D
:1055A0000846006800F04000019000BF00BF00BF47
:1055B000002001900846006840F00100086008469D
:1055C000006800F00100019000BF00BF00BF002094
:1055D00001900846006840F008000860084600682E
:1055E00000F00800019000BF00BF00BF0020019044
:1055F0000846006840F0040008600846006800F0B3
:105600000400019000BF00BF00BF002001900846C9
:10561000006840F0800008600846006800F08000E4
:10562000019000BF00BF00BF002001900846006845
:1056300040F0200008600846006800F0200001905B
:1056400000BF00BF012240213A48FDF7D2FD0022F1
:105650004FF4E0513848FDF7CCFD012210213748C6
:10566000FDF7C7FD012211463548FDF7C2FD402078
:105670000290012003900490059002A92D48FDF7A7
:10568000AFFC4FF4E0500290012003900020049002
:10569000059002A92848FDF7A3FC0920029029489B
:1056A00003900120049002A92248FDF799FC1020E4
:1056B00002900120039004900220059002A91F4847
:1056C000FDF78EFC302002901E48039001200490CC
:1056D00002A91D48FDF784FC01200290039004906C
:1056E0000220059002A91648FDF77AFC0022062147
:1056F0000846FEF7CFF80620FEF7BCF80022052189
:105700000920FEF7C7F80920FEF7B4F800220521AA
:105710000A20FEF7BFF80A20FEF7ACF800220521A8
:105720001720FEF7B7F81720FEF7A4F807B000BD62
:105730003038024000180240001C024000000240C5
:1057400000040240000021100008024010B50B4880
:105750000B4908600B484860002109488160C1601E
:105760004FF480410161002141618161C1610162A9
:10577000FDF74CFD08B1FCF7BDF910BD005C004021
:10578000C8020020801A060010B50F480F490860B3
:105790004FF48270486000210C488160C160022192
:1057A000016101214161490281613821C16100210A
:1057B0000162416281620A21C162FEF71FFC08B1E9
:1057C000FCF798F910BD0000003001401C030020D8
:1057D00000B587B01C216846FAF79CFD15481649AC
:1057E00008600020486000211348816041F2873141
:1057F000C160002101618161FEF74DFE08B1FCF737
:1058000079F90D48FFF749F908B1FCF773F9602001
:105810000090002001900290049000226946064802
:10582000FFF7B7F808B1FCF765F90348FFF74EF842
:1058300007B000BD004401403405002000B587B02A
:1058400000200390049005900690019002904FF084
:1058500080401449086042F2CF004860002111489E
:1058600081606421C160002101618161FEF713FE46
:1058700008B1FCF73FF94FF48050039003A90948A1
:10588000FEF7D4FE08B1FCF735F900200190029034
:1058900001A90448FEF7D5FD08B1FCF72BF907B0C4
:1058A00000BD00003404002000B587B00020039044
:1058B00004900590069001900290154815490860E3
:1058C00042F2CF0048600021124881600A21C16085
:1058D0000021016180218161FEF7DDFD08B1FCF747
:1058E00009F94FF48050039003A90A48FEF79EFE81
:1058F00008B1FCF7FFF800200190029001A90548CB
:10590000FEF79FFD08B1FCF7F5F807B000BD0000F9
:10591000000400407404002000B58DB00020099000
:105920000A900B900C90079008901C216846FAF79B
:10593000F1FC2048204908600020486000211E48F2
:10594000816040F63301C160002101618161FEF791
:10595000A2FD08B1FCF7CEF84FF48050099009A9D8
:105960001548FEF763FE08B1FCF7C4F81248FFF7CC
:1059700094F808B1FCF7BEF800200790089007A93A
:105980000D48FEF75EFD08B1FCF7B4F8602000900A
:105990000020019002900490082269460648FEF714
:1059A000F8FF08B1FCF7A6F80348FEF78FFF0DB02B
:1059B00000BD000000080040B404002000B587B01E
:1059C00000200390049005900690019002901448E6
:1059D00014490860002048600021124881604FF699
:1059E000FF71C160002101618161FEF754FD08B1C2
:1059F000FCF780F84FF48050039003A90948FEF7A4
:105A000015FE08B1FCF776F800200190029001A97C
:105A10000448FEF716FD08B1FCF76CF807B000BDAE
:105A2000000C0040F404002010B50B480B4908603E
:105A30004FF4E1304860002108488160C160016195
:105A40000C21416100218161C161FFF7A8F808B113
:105A5000FCF750F810BD0000001001407405002054
:105A600010B50B480B4908600B48486000210948F5
:105A70008160C1604FF4806101610C2141610021AE
:105A80008161C161FFF78BF808B1FCF733F810BDF5
:105A900000480040B4050020A086010010B50B4866
:105AA0000B4908604FF4E1304860002108488160EC
:105AB000C16001610C21416100218161C161FFF779
:105AC0006EF808B1FCF716F810BD00000014014094
:105AD000F405002000B52DED068B0246B0EE403AED
